{
  "contractName": "DeveloperVerifier",
  "abi": [
    {
      "inputs": [],
      "stateMutability": "nonpayable",
      "type": "constructor"
    },
    {
      "inputs": [
        {
          "internalType": "address",
          "name": "",
          "type": "address"
        }
      ],
      "name": "address_to_id",
      "outputs": [
        {
          "internalType": "uint256",
          "name": "",
          "type": "uint256"
        }
      ],
      "stateMutability": "view",
      "type": "function",
      "constant": true
    },
    {
      "inputs": [
        {
          "internalType": "uint256",
          "name": "",
          "type": "uint256"
        }
      ],
      "name": "certifications",
      "outputs": [
        {
          "internalType": "string",
          "name": "url",
          "type": "string"
        },
        {
          "internalType": "string",
          "name": "issue_date",
          "type": "string"
        },
        {
          "internalType": "string",
          "name": "valid_till",
          "type": "string"
        },
        {
          "internalType": "string",
          "name": "name",
          "type": "string"
        },
        {
          "internalType": "uint256",
          "name": "id",
          "type": "uint256"
        },
        {
          "internalType": "string",
          "name": "issuer",
          "type": "string"
        }
      ],
      "stateMutability": "view",
      "type": "function",
      "constant": true
    },
    {
      "inputs": [
        {
          "internalType": "uint256",
          "name": "",
          "type": "uint256"
        }
      ],
      "name": "companies",
      "outputs": [
        {
          "internalType": "uint256",
          "name": "id",
          "type": "uint256"
        },
        {
          "internalType": "string",
          "name": "name",
          "type": "string"
        },
        {
          "internalType": "address",
          "name": "wallet_address",
          "type": "address"
        }
      ],
      "stateMutability": "view",
      "type": "function",
      "constant": true
    },
    {
      "inputs": [
        {
          "internalType": "string",
          "name": "",
          "type": "string"
        }
      ],
      "name": "email_to_address",
      "outputs": [
        {
          "internalType": "address",
          "name": "",
          "type": "address"
        }
      ],
      "stateMutability": "view",
      "type": "function",
      "constant": true
    },
    {
      "inputs": [
        {
          "internalType": "uint256",
          "name": "",
          "type": "uint256"
        }
      ],
      "name": "employees",
      "outputs": [
        {
          "internalType": "uint256",
          "name": "id",
          "type": "uint256"
        },
        {
          "internalType": "uint256",
          "name": "company_id",
          "type": "uint256"
        },
        {
          "internalType": "string",
          "name": "name",
          "type": "string"
        },
        {
          "internalType": "address",
          "name": "wallet_address",
          "type": "address"
        },
        {
          "internalType": "bool",
          "name": "is_employed",
          "type": "bool"
        },
        {
          "internalType": "bool",
          "name": "is_manager",
          "type": "bool"
        },
        {
          "internalType": "uint256",
          "name": "num_skill",
          "type": "uint256"
        }
      ],
      "stateMutability": "view",
      "type": "function",
      "constant": true
    },
    {
      "inputs": [
        {
          "internalType": "uint256",
          "name": "",
          "type": "uint256"
        }
      ],
      "name": "endorsments",
      "outputs": [
        {
          "internalType": "uint256",
          "name": "endorser_id",
          "type": "uint256"
        },
        {
          "internalType": "string",
          "name": "date",
          "type": "string"
        },
        {
          "internalType": "string",
          "name": "comment",
          "type": "string"
        }
      ],
      "stateMutability": "view",
      "type": "function",
      "constant": true
    },
    {
      "inputs": [
        {
          "internalType": "uint256",
          "name": "",
          "type": "uint256"
        }
      ],
      "name": "experiences",
      "outputs": [
        {
          "internalType": "string",
          "name": "starting_date",
          "type": "string"
        },
        {
          "internalType": "string",
          "name": "ending_date",
          "type": "string"
        },
        {
          "internalType": "string",
          "name": "user_name",
          "type": "string"
        },
        {
          "internalType": "string",
          "name": "role",
          "type": "string"
        },
        {
          "internalType": "bool",
          "name": "currently_working",
          "type": "bool"
        },
        {
          "internalType": "uint256",
          "name": "company_id",
          "type": "uint256"
        },
        {
          "internalType": "bool",
          "name": "is_approved",
          "type": "bool"
        }
      ],
      "stateMutability": "view",
      "type": "function",
      "constant": true
    },
    {
      "inputs": [
        {
          "internalType": "address",
          "name": "",
          "type": "address"
        }
      ],
      "name": "is_company",
      "outputs": [
        {
          "internalType": "bool",
          "name": "",
          "type": "bool"
        }
      ],
      "stateMutability": "view",
      "type": "function",
      "constant": true
    },
    {
      "inputs": [
        {
          "internalType": "uint256",
          "name": "",
          "type": "uint256"
        }
      ],
      "name": "skills",
      "outputs": [
        {
          "internalType": "uint256",
          "name": "id",
          "type": "uint256"
        },
        {
          "internalType": "string",
          "name": "name",
          "type": "string"
        },
        {
          "internalType": "bool",
          "name": "verified",
          "type": "bool"
        }
      ],
      "stateMutability": "view",
      "type": "function",
      "constant": true
    },
    {
      "inputs": [
        {
          "internalType": "string",
          "name": "email",
          "type": "string"
        },
        {
          "internalType": "string",
          "name": "name",
          "type": "string"
        },
        {
          "internalType": "string",
          "name": "acc_type",
          "type": "string"
        }
      ],
      "name": "sign_up",
      "outputs": [],
      "stateMutability": "nonpayable",
      "type": "function"
    },
    {
      "inputs": [
        {
          "internalType": "uint256",
          "name": "employee_id",
          "type": "uint256"
        }
      ],
      "name": "approve_manager",
      "outputs": [],
      "stateMutability": "nonpayable",
      "type": "function"
    },
    {
      "inputs": [
        {
          "internalType": "string",
          "name": "email",
          "type": "string"
        }
      ],
      "name": "login",
      "outputs": [
        {
          "internalType": "string",
          "name": "",
          "type": "string"
        }
      ],
      "stateMutability": "view",
      "type": "function",
      "constant": true
    },
    {
      "inputs": [
        {
          "internalType": "uint256",
          "name": "user_id",
          "type": "uint256"
        },
        {
          "internalType": "string",
          "name": "url",
          "type": "string"
        },
        {
          "internalType": "string",
          "name": "issue_date",
          "type": "string"
        },
        {
          "internalType": "string",
          "name": "valid_till",
          "type": "string"
        },
        {
          "internalType": "string",
          "name": "name",
          "type": "string"
        },
        {
          "internalType": "string",
          "name": "issuer",
          "type": "string"
        },
        {
          "internalType": "uint256",
          "name": "linked_skill_id",
          "type": "uint256"
        }
      ],
      "name": "add_certification",
      "outputs": [],
      "stateMutability": "nonpayable",
      "type": "function"
    },
    {
      "inputs": [
        {
          "internalType": "uint256",
          "name": "userid",
          "type": "uint256"
        },
        {
          "internalType": "string",
          "name": "skill_name",
          "type": "string"
        }
      ],
      "name": "add_skill",
      "outputs": [],
      "stateMutability": "nonpayable",
      "type": "function"
    },
    {
      "inputs": [
        {
          "internalType": "uint256",
          "name": "user_id",
          "type": "uint256"
        },
        {
          "internalType": "uint256",
          "name": "skill_id",
          "type": "uint256"
        },
        {
          "internalType": "string",
          "name": "endorsing_date",
          "type": "string"
        },
        {
          "internalType": "string",
          "name": "comment",
          "type": "string"
        }
      ],
      "name": "endorse_skill",
      "outputs": [],
      "stateMutability": "nonpayable",
      "type": "function"
    },
    {
      "inputs": [
        {
          "internalType": "uint256",
          "name": "user_id",
          "type": "uint256"
        },
        {
          "internalType": "string",
          "name": "starting_date",
          "type": "string"
        },
        {
          "internalType": "string",
          "name": "ending_date",
          "type": "string"
        },
        {
          "internalType": "string",
          "name": "role",
          "type": "string"
        },
        {
          "internalType": "uint256",
          "name": "company_id",
          "type": "uint256"
        }
      ],
      "name": "add_experience",
      "outputs": [],
      "stateMutability": "nonpayable",
      "type": "function"
    },
    {
      "inputs": [
        {
          "internalType": "uint256",
          "name": "exp_id",
          "type": "uint256"
        },
        {
          "internalType": "uint256",
          "name": "company_id",
          "type": "uint256"
        }
      ],
      "name": "approve_experience",
      "outputs": [],
      "stateMutability": "nonpayable",
      "type": "function"
    },
    {
      "inputs": [
        {
          "internalType": "string",
          "name": "email",
          "type": "string"
        },
        {
          "internalType": "address",
          "name": "new_address",
          "type": "address"
        }
      ],
      "name": "update_wallet_address",
      "outputs": [],
      "stateMutability": "nonpayable",
      "type": "function"
    },
    {
      "inputs": [
        {
          "internalType": "uint256",
          "name": "id",
          "type": "uint256"
        }
      ],
      "name": "skills_of_user",
      "outputs": [
        {
          "internalType": "uint256[]",
          "name": "",
          "type": "uint256[]"
        }
      ],
      "stateMutability": "view",
      "type": "function",
      "constant": true
    },
    {
      "inputs": [
        {
          "internalType": "uint256",
          "name": "id",
          "type": "uint256"
        }
      ],
      "name": "exp_of_user",
      "outputs": [
        {
          "internalType": "uint256[]",
          "name": "",
          "type": "uint256[]"
        }
      ],
      "stateMutability": "view",
      "type": "function",
      "constant": true
    },
    {
      "inputs": [
        {
          "internalType": "uint256",
          "name": "id",
          "type": "uint256"
        }
      ],
      "name": "curr_emp_of_company",
      "outputs": [
        {
          "internalType": "uint256[]",
          "name": "",
          "type": "uint256[]"
        }
      ],
      "stateMutability": "view",
      "type": "function",
      "constant": true
    },
    {
      "inputs": [
        {
          "internalType": "uint256",
          "name": "id",
          "type": "uint256"
        }
      ],
      "name": "prev_emp_of_company",
      "outputs": [
        {
          "internalType": "uint256[]",
          "name": "",
          "type": "uint256[]"
        }
      ],
      "stateMutability": "view",
      "type": "function",
      "constant": true
    },
    {
      "inputs": [
        {
          "internalType": "uint256",
          "name": "id",
          "type": "uint256"
        }
      ],
      "name": "requested_emp_of_company",
      "outputs": [
        {
          "internalType": "uint256[]",
          "name": "",
          "type": "uint256[]"
        }
      ],
      "stateMutability": "view",
      "type": "function",
      "constant": true
    },
    {
      "inputs": [
        {
          "internalType": "uint256",
          "name": "id",
          "type": "uint256"
        }
      ],
      "name": "cert_of_skill",
      "outputs": [
        {
          "internalType": "uint256[]",
          "name": "",
          "type": "uint256[]"
        }
      ],
      "stateMutability": "view",
      "type": "function",
      "constant": true
    },
    {
      "inputs": [
        {
          "internalType": "uint256",
          "name": "id",
          "type": "uint256"
        }
      ],
      "name": "endrs_of_skill",
      "outputs": [
        {
          "internalType": "uint256[]",
          "name": "",
          "type": "uint256[]"
        }
      ],
      "stateMutability": "view",
      "type": "function",
      "constant": true
    }
  ],
  "bytecode": "0x60806040523480156200001157600080fd5b506001805480820182556000919091526040805180820190915260058082526464756d6d7960d81b60209092019182527fb10e2d527612073b26eecdfd717e6a320cf44b4afac2b0732d9fcbe2b7fa0cf66007909302928301926200009b927fb10e2d527612073b26eecdfd717e6a320cf44b4afac2b0732d9fcbe2b7fa0cf89091019162000100565b506003810180546001600160a01b0319163317905560008082556040805191825260208201908190529051620000d69160058401916200018f565b506040805160008152602081019182905251620000f89160068401916200018f565b505062000220565b8280546200010e90620001e3565b90600052602060002090601f0160209004810192826200013257600085556200017d565b82601f106200014d57805160ff19168380011785556200017d565b828001600101855582156200017d579182015b828111156200017d57825182559160200191906001019062000160565b506200018b929150620001cc565b5090565b8280548282559060005260206000209081019282156200017d57916020028201828111156200017d57825182559160200191906001019062000160565b5b808211156200018b5760008155600101620001cd565b600281046001821680620001f857607f821691505b602082108114156200021a57634e487b7160e01b600052602260045260246000fd5b50919050565b612dc280620002306000396000f3fe608060405234801561001057600080fd5b50600436106101735760003560e01c806350d15fbe116100de578063b1e116c311610097578063dd7a753811610071578063dd7a7538146103ab578063edf85a86146103cb578063f7a03f3b146103de578063f86b20cb146103f157610173565b8063b1e116c314610350578063ce77c9c914610372578063cf3e7c7c1461038557610173565b806350d15fbe146102c25780635a2ec07c146102e45780637a52f30e146102f7578063852e65de14610317578063884ffe321461032a5780639e70be411461033d57610173565b80632cc8e274116101305780632cc8e2741461021157806336d77eaa146102245780633a7d280c146102375780633c0359a4146102575780634739326b1461027c5780634845a295146102a257610173565b8063067709dd146101785780630c1bc5911461018d578063110ce79c146101a05780631575cdea146101c957806317ae5f81146101dc5780632813d19d146101ef575b600080fd5b61018b610186366004612699565b610404565b005b61018b61019b3660046125f2565b610518565b6101b36101ae366004612590565b61071c565b6040516101c09190612885565b60405180910390f35b61018b6101d73660046124bf565b6107a7565b6101b36101ea366004612590565b610a77565b6102026101fd366004612590565b610aff565b6040516101c093929190612be4565b6101b361021f366004612590565b610bc6565b61018b610232366004612590565b610c4e565b61024a610245366004612555565b610d88565b6040516101c091906128d4565b61026a610265366004612590565b610e33565b6040516101c096959493929190612956565b61028f61028a366004612590565b611127565b6040516101c09796959493929190612c75565b6102b56102b0366004612555565b611217565b6040516101c09190612871565b6102d56102d0366004612590565b61123d565b6040516101c093929190612c15565b61018b6102f23660046125a8565b6112fe565b61030a610305366004612453565b611416565b6040516101c09190612bdb565b6101b3610325366004612590565b611428565b61018b61033836600461246d565b6114b0565b6101b361034b366004612590565b611560565b61036361035e366004612590565b6115e8565b6040516101c093929190612c40565b6101b3610380366004612590565b61172e565b610398610393366004612590565b6117b6565b6040516101c097969594939291906128e7565b6103be6103b9366004612453565b611a2f565b6040516101c091906128c9565b61018b6103d9366004612797565b611a44565b6101b36103ec366004612590565b611ee0565b61018b6103ff3660046127b8565b611f68565b336000908152600760205260409020548b90811461042157600080fd5b600280546001810182556000919091528b5160069091027f405787fa12a823e0f2b7631cc41b3ba8828b3321ca811111fa75cd3aa3bb5ace019061046b90829060208f01906121ac565b5061047a600182018c8c612230565b50610489600282018a8a612230565b50610498600382018888612230565b506002546104a890600190612cc3565b60048201556104bb600582018686612230565b50600483815481106104dd57634e487b7160e01b600052603260045260246000fd5b600091825260208083206004909401546003600590930290940191909101805460018101825590835291200155505050505050505050505050565b336000908152600760205260409020548890811461053557600080fd5b600580546001810182556000919091526007027f036b6384b5eca791c62761152d0c79bb0604c104a5fb6f4eb0703f3154bb3db581018390557f036b6384b5eca791c62761152d0c79bb0604c104a5fb6f4eb0703f3154bb3db48101805460ff199081169091557f036b6384b5eca791c62761152d0c79bb0604c104a5fb6f4eb0703f3154bb3db68201805490911690557f036b6384b5eca791c62761152d0c79bb0604c104a5fb6f4eb0703f3154bb3db0016105f3818a8a612230565b50610602600182018888612230565b50610611600382018686612230565b5060018a8154811061063357634e487b7160e01b600052603260045260246000fd5b90600052602060002090600702016002018160020190805461065490612d0a565b61065f9291906122a4565b5060018a8154811061068157634e487b7160e01b600052603260045260246000fd5b906000526020600020906007020160060160016005805490506106a49190612cc3565b815460018101835560009283526020832001558054849081106106d757634e487b7160e01b600052603260045260246000fd5b906000526020600020906006020160050160016005805490506106fa9190612cc3565b8154600181018355600092835260209092209091015550505050505050505050565b60606004828154811061073f57634e487b7160e01b600052603260045260246000fd5b906000526020600020906005020160040180548060200260200160405190810160405280929190818152602001828054801561079a57602002820191906000526020600020905b815481526020019060010190808311610786575b505050505090505b919050565b60006001600160a01b0316600687876040516107c4929190612845565b908152604051908190036020019020546001600160a01b0316146108035760405162461bcd60e51b81526004016107fa90612b6f565b60405180910390fd5b3360068787604051610816929190612845565b908152604080516020928190038301812080546001600160a01b0319166001600160a01b039590951694909417909355601f8401829004820283018201905282825261089991908490849081908401838280828437600092019190915250506040805180820190915260048152633ab9b2b960e11b602082015291506121749050565b15610980576001805480820182556000919091526007027fb10e2d527612073b26eecdfd717e6a320cf44b4afac2b0732d9fcbe2b7fa0cf6810190610901907fb10e2d527612073b26eecdfd717e6a320cf44b4afac2b0732d9fcbe2b7fa0cf8018686612230565b50600180546109109190612cc3565b8082556003820180546001600160a01b0319163390811790915560009081526007602090815260408083209390935582519182528101918290525161095991600584019161231f565b50604080516000815260208101918290525161097991600684019161231f565b5050610a6f565b600080546001810182559080526006027f290decd9548b62a8d60345a988386fc84ba6bc95484008f6362f93160ef3e5638101906109e1907f290decd9548b62a8d60345a988386fc84ba6bc95484008f6362f93160ef3e564018686612230565b506000546109f190600190612cc3565b81556002810180546001600160a01b031916331790556040805160008152602081019182905251610a2691600384019161231f565b506040805160008152602081019182905251610a4691600484019161231f565b5054336000908152600760209081526040808320939093556008905220805460ff191660011790555b505050505050565b606060008281548110610a9a57634e487b7160e01b600052603260045260246000fd5b906000526020600020906006020160050180548060200260200160405190810160405280929190818152602001828054801561079a57602002820191906000526020600020908154815260200190600101908083116107865750505050509050919050565b60008181548110610b0f57600080fd5b60009182526020909120600690910201805460018201805491935090610b3490612d0a565b80601f0160208091040260200160405190810160405280929190818152602001828054610b6090612d0a565b8015610bad5780601f10610b8257610100808354040283529160200191610bad565b820191906000526020600020905b815481529060010190602001808311610b9057829003601f168201915b505050600290930154919250506001600160a01b031683565b606060008281548110610be957634e487b7160e01b600052603260045260246000fd5b906000526020600020906006020160040180548060200260200160405190810160405280929190818152602001828054801561079a57602002820191906000526020600020908154815260200190600101908083116107865750505050509050919050565b3360009081526008602052604090205460ff16610c7d5760405162461bcd60e51b81526004016107fa90612a42565b336000908152600760205260409020546001805483908110610caf57634e487b7160e01b600052603260045260246000fd5b90600052602060002090600702016001015414610cde5760405162461bcd60e51b81526004016107fa90612ad8565b60018181548110610cff57634e487b7160e01b600052603260045260246000fd5b906000526020600020906007020160030160159054906101000a900460ff1615610d3b5760405162461bcd60e51b81526004016107fa90612ba6565b6001808281548110610d5d57634e487b7160e01b600052603260045260246000fd5b906000526020600020906007020160030160156101000a81548160ff02191690831515021790555050565b6060600682604051610d9a9190612855565b90815260405190819003602001902054336001600160a01b0390911614610dd35760405162461bcd60e51b81526004016107fa90612a85565b3360009081526008602052604090205460ff16610e0c57604051806040016040528060048152602001633ab9b2b960e11b815250610e2d565b60405180604001604052806007815260200166636f6d70616e7960c81b8152505b92915050565b60028181548110610e4357600080fd5b9060005260206000209060060201600091509050806000018054610e6690612d0a565b80601f0160208091040260200160405190810160405280929190818152602001828054610e9290612d0a565b8015610edf5780601f10610eb457610100808354040283529160200191610edf565b820191906000526020600020905b815481529060010190602001808311610ec257829003601f168201915b505050505090806001018054610ef490612d0a565b80601f0160208091040260200160405190810160405280929190818152602001828054610f2090612d0a565b8015610f6d5780601f10610f4257610100808354040283529160200191610f6d565b820191906000526020600020905b815481529060010190602001808311610f5057829003601f168201915b505050505090806002018054610f8290612d0a565b80601f0160208091040260200160405190810160405280929190818152602001828054610fae90612d0a565b8015610ffb5780601f10610fd057610100808354040283529160200191610ffb565b820191906000526020600020905b815481529060010190602001808311610fde57829003601f168201915b50505050509080600301805461101090612d0a565b80601f016020809104026020016040519081016040528092919081815260200182805461103c90612d0a565b80156110895780601f1061105e57610100808354040283529160200191611089565b820191906000526020600020905b81548152906001019060200180831161106c57829003601f168201915b5050505050908060040154908060050180546110a490612d0a565b80601f01602080910402602001604051908101604052809291908181526020018280546110d090612d0a565b801561111d5780601f106110f25761010080835404028352916020019161111d565b820191906000526020600020905b81548152906001019060200180831161110057829003601f168201915b5050505050905086565b6001818154811061113757600080fd5b906000526020600020906007020160009150905080600001549080600101549080600201805461116690612d0a565b80601f016020809104026020016040519081016040528092919081815260200182805461119290612d0a565b80156111df5780601f106111b4576101008083540402835291602001916111df565b820191906000526020600020905b8154815290600101906020018083116111c257829003601f168201915b505050600384015460049094015492936001600160a01b0381169360ff600160a01b830481169450600160a81b909204909116915087565b80516020818301810180516006825292820191909301209152546001600160a01b031681565b6004818154811061124d57600080fd5b6000918252602090912060059091020180546001820180549193509061127290612d0a565b80601f016020809104026020016040519081016040528092919081815260200182805461129e90612d0a565b80156112eb5780601f106112c0576101008083540402835291602001916112eb565b820191906000526020600020905b8154815290600101906020018083116112ce57829003601f168201915b5050506002909301549192505060ff1683565b336000908152600760205260409020548390811461131b57600080fd5b6004805460018181018355600092909252815460059091027f8a35acfbc15ff81a39ae7d344fd709f28e8600b4aa8c65c6b64bfe7fe36bd19b0191908690811061137557634e487b7160e01b600052603260045260246000fd5b906000526020600020906007020160050160016004805490506113989190612cc3565b8154600181810184556000938452602090932001556004546113ba9190612cc3565b81556113ca600182018585612230565b5060028101805460ff1916905560408051600081526020810191829052516113f691600384019161231f565b506040805160008152602081019182905251610a6f91600484019161231f565b60076020526000908152604090205481565b60606000828154811061144b57634e487b7160e01b600052603260045260246000fd5b906000526020600020906006020160030180548060200260200160405190810160405280929190818152602001828054801561079a57602002820191906000526020600020908154815260200190600101908083116107865750505050509050919050565b336001600160a01b0316600684846040516114cc929190612845565b908152604051908190036020019020546001600160a01b0316146115025760405162461bcd60e51b81526004016107fa90612b1b565b8060068484604051611515929190612845565b908152604080516020928190038301902080546001600160a01b0319166001600160a01b03948516179055336000908152600790925280822080549083905593909216815220555050565b60606001828154811061158357634e487b7160e01b600052603260045260246000fd5b906000526020600020906007020160050180548060200260200160405190810160405280929190818152602001828054801561079a57602002820191906000526020600020908154815260200190600101908083116107865750505050509050919050565b600381815481106115f857600080fd5b6000918252602090912060039091020180546001820180549193509061161d90612d0a565b80601f016020809104026020016040519081016040528092919081815260200182805461164990612d0a565b80156116965780601f1061166b57610100808354040283529160200191611696565b820191906000526020600020905b81548152906001019060200180831161167957829003601f168201915b5050505050908060020180546116ab90612d0a565b80601f01602080910402602001604051908101604052809291908181526020018280546116d790612d0a565b80156117245780601f106116f957610100808354040283529160200191611724565b820191906000526020600020905b81548152906001019060200180831161170757829003601f168201915b5050505050905083565b60606001828154811061175157634e487b7160e01b600052603260045260246000fd5b906000526020600020906007020160060180548060200260200160405190810160405280929190818152602001828054801561079a57602002820191906000526020600020908154815260200190600101908083116107865750505050509050919050565b600581815481106117c657600080fd5b90600052602060002090600702016000915090508060000180546117e990612d0a565b80601f016020809104026020016040519081016040528092919081815260200182805461181590612d0a565b80156118625780601f1061183757610100808354040283529160200191611862565b820191906000526020600020905b81548152906001019060200180831161184557829003601f168201915b50505050509080600101805461187790612d0a565b80601f01602080910402602001604051908101604052809291908181526020018280546118a390612d0a565b80156118f05780601f106118c5576101008083540402835291602001916118f0565b820191906000526020600020905b8154815290600101906020018083116118d357829003601f168201915b50505050509080600201805461190590612d0a565b80601f016020809104026020016040519081016040528092919081815260200182805461193190612d0a565b801561197e5780601f106119535761010080835404028352916020019161197e565b820191906000526020600020905b81548152906001019060200180831161196157829003601f168201915b50505050509080600301805461199390612d0a565b80601f01602080910402602001604051908101604052809291908181526020018280546119bf90612d0a565b8015611a0c5780601f106119e157610100808354040283529160200191611a0c565b820191906000526020600020905b8154815290600101906020018083116119ef57829003601f168201915b5050505060048301546005840154600690940154929360ff918216939092501687565b60086020526000908152604090205460ff1681565b3360009081526008602052604090205460ff168015611ad3575060058281548110611a7f57634e487b7160e01b600052603260045260246000fd5b6000918252602080832060079283020160050154338452919052604082205482549192918110611abf57634e487b7160e01b600052603260045260246000fd5b906000526020600020906006020160000154145b80611bbf575033600090815260076020526040902054600180549091908110611b0c57634e487b7160e01b600052603260045260246000fd5b906000526020600020906007020160030160159054906101000a900460ff168015611bbf575060058281548110611b5357634e487b7160e01b600052603260045260246000fd5b906000526020600020906007020160050154600160076000336001600160a01b03166001600160a01b031681526020019081526020016000205481548110611bab57634e487b7160e01b600052603260045260246000fd5b906000526020600020906007020160010154145b611bdb5760405162461bcd60e51b81526004016107fa906129ca565b6000600160058481548110611c0057634e487b7160e01b600052603260045260246000fd5b60009182526020822060079190910201600601805460ff19169215159290921790915590505b60008281548110611c4757634e487b7160e01b600052603260045260246000fd5b906000526020600020906006020160050180549050811015611d3b578260008381548110611c8557634e487b7160e01b600052603260045260246000fd5b90600052602060002090600602016005018281548110611cb557634e487b7160e01b600052603260045260246000fd5b90600052602060002001541415611d29576000808381548110611ce857634e487b7160e01b600052603260045260246000fd5b90600052602060002090600602016005018281548110611d1857634e487b7160e01b600052603260045260246000fd5b600091825260209091200155611d3b565b80611d3381612d45565b915050611c26565b5060005b60008281548110611d6057634e487b7160e01b600052603260045260246000fd5b906000526020600020906006020160030180549050811015611e555760008281548110611d9d57634e487b7160e01b600052603260045260246000fd5b90600052602060002090600602016003018181548110611dcd57634e487b7160e01b600052603260045260246000fd5b906000526020600020015460001415611e43578260008381548110611e0257634e487b7160e01b600052603260045260246000fd5b90600052602060002090600602016005018281548110611e3257634e487b7160e01b600052603260045260246000fd5b600091825260209091200155611e55565b80611e4d81612d45565b915050611d3f565b60008281548110611e7657634e487b7160e01b600052603260045260246000fd5b906000526020600020906006020160030180549050811415611edb5760008281548110611eb357634e487b7160e01b600052603260045260246000fd5b6000918252602080832060036006909302019190910180546001810182559083529120018390555b505050565b606060048281548110611f0357634e487b7160e01b600052603260045260246000fd5b906000526020600020906005020160030180548060200260200160405190810160405280929190818152602001828054801561079a57602002820191906000526020600020908154815260200190600101908083116107865750505050509050919050565b600380546001810182553360009081526007602052604090205491027fc2575a0e9e593c00f959f8c92f12db2869c3395a3b0502d05e2516446f71f85b8101918255611fd7907fc2575a0e9e593c00f959f8c92f12db2869c3395a3b0502d05e2516446f71f85d018484612230565b50611fe6600182018686612230565b506004868154811061200857634e487b7160e01b600052603260045260246000fd5b9060005260206000209060050201600401600160038054905061202b9190612cc3565b8154600181810184556000938452602080852090920192909255338352600790526040909120548154811061207057634e487b7160e01b600052603260045260246000fd5b906000526020600020906007020160030160159054906101000a900460ff161561216b57600187815481106120b557634e487b7160e01b600052603260045260246000fd5b906000526020600020906007020160010154600160076000336001600160a01b03166001600160a01b03168152602001908152602001600020548154811061210d57634e487b7160e01b600052603260045260246000fd5b906000526020600020906007020160010154141561216b5760016004878154811061214857634e487b7160e01b600052603260045260246000fd5b60009182526020909120600590910201600201805460ff19169115159190911790555b50505050505050565b60006121808383612187565b9392505050565b6000815183511480156121805750508051602091820120825192909101919091201490565b8280546121b890612d0a565b90600052602060002090601f0160209004810192826121da5760008555612220565b82601f106121f357805160ff1916838001178555612220565b82800160010185558215612220579182015b82811115612220578251825591602001919060010190612205565b5061222c929150612359565b5090565b82805461223c90612d0a565b90600052602060002090601f01602090048101928261225e5760008555612220565b82601f106122775782800160ff19823516178555612220565b82800160010185558215612220579182015b82811115612220578235825591602001919060010190612289565b8280546122b090612d0a565b90600052602060002090601f0160209004810192826122d25760008555612220565b82601f106122e35780548555612220565b8280016001018555821561222057600052602060002091601f016020900482015b82811115612220578254825591600101919060010190612304565b8280548282559060005260206000209081019282156122205791602002820182811115612220578251825591602001919060010190612205565b5b8082111561222c576000815560010161235a565b80356001600160a01b03811681146107a257600080fd5b60008083601f840112612396578081fd5b50813567ffffffffffffffff8111156123ad578182fd5b6020830191508360208285010111156123c557600080fd5b9250929050565b600082601f8301126123dc578081fd5b813567ffffffffffffffff808211156123f7576123f7612d76565b604051601f8301601f19908116603f0116810190828211818310171561241f5761241f612d76565b81604052838152866020858801011115612437578485fd5b8360208701602083013792830160200193909352509392505050565b600060208284031215612464578081fd5b6121808261236e565b600080600060408486031215612481578182fd5b833567ffffffffffffffff811115612497578283fd5b6124a386828701612385565b90945092506124b690506020850161236e565b90509250925092565b600080600080600080606087890312156124d7578182fd5b863567ffffffffffffffff808211156124ee578384fd5b6124fa8a838b01612385565b90985096506020890135915080821115612512578384fd5b61251e8a838b01612385565b90965094506040890135915080821115612536578384fd5b5061254389828a01612385565b979a9699509497509295939492505050565b600060208284031215612566578081fd5b813567ffffffffffffffff81111561257c578182fd5b612588848285016123cc565b949350505050565b6000602082840312156125a1578081fd5b5035919050565b6000806000604084860312156125bc578283fd5b83359250602084013567ffffffffffffffff8111156125d9578283fd5b6125e586828701612385565b9497909650939450505050565b60008060008060008060008060a0898b03121561260d578182fd5b88359750602089013567ffffffffffffffff8082111561262b578384fd5b6126378c838d01612385565b909950975060408b013591508082111561264f578384fd5b61265b8c838d01612385565b909750955060608b0135915080821115612673578384fd5b506126808b828c01612385565b999c989b50969995989497949560800135949350505050565b600080600080600080600080600080600060e08c8e0312156126b9578283fd5b8b359a5067ffffffffffffffff8060208e013511156126d6578384fd5b6126e68e60208f01358f016123cc565b9a508060408e013511156126f8578384fd5b6127088e60408f01358f01612385565b909a50985060608d013581101561271d578384fd5b61272d8e60608f01358f01612385565b909850965060808d0135811015612742578384fd5b6127528e60808f01358f01612385565b909650945060a08d0135811015612767578384fd5b506127788d60a08e01358e01612385565b819450809350505060c08c013590509295989b509295989b9093969950565b600080604083850312156127a9578182fd5b50508035926020909101359150565b600080600080600080608087890312156127d0578182fd5b8635955060208701359450604087013567ffffffffffffffff808211156127f5578384fd5b6128018a838b01612385565b90965094506060890135915080821115612536578384fd5b60008151808452612831816020860160208601612cda565b601f01601f19169290920160200192915050565b6000828483379101908152919050565b60008251612867818460208701612cda565b9190910192915050565b6001600160a01b0391909116815260200190565b6020808252825182820181905260009190848201906040850190845b818110156128bd578351835292840192918401916001016128a1565b50909695505050505050565b901515815260200190565b6000602082526121806020830184612819565b600060e082526128fa60e083018a612819565b828103602084015261290c818a612819565b905082810360408401526129208189612819565b905082810360608401526129348188612819565b9515156080840152505060a0810192909252151560c090910152949350505050565b600060c0825261296960c0830189612819565b828103602084015261297b8189612819565b9050828103604084015261298f8188612819565b905082810360608401526129a38187612819565b905084608084015282810360a08401526129bd8185612819565b9998505050505050505050565b60208082526052908201527f6572726f723a20617070726f7665722073686f756c642062652074686520636f60408201527f6d70616e79206163636f756e74206f722061206d616e61676572206f662074686060820152716520726571756972656420636f6d70616e7960701b608082015260a00190565b60208082526023908201527f6572726f723a2073656e646572206e6f74206120636f6d70616e79206163636f6040820152621d5b9d60ea1b606082015260800190565b60208082526033908201527f6572726f723a20696e636f72726563742077616c6c65742061646472657373206040820152723ab9b2b2103337b91039b4b3b734b7339034b760691b606082015260800190565b60208082526023908201527f6572726f723a2075736572206e6f74206f66207468652073616d6520636f6d70604082015262616e7960e81b606082015260800190565b60208082526034908201527f6572726f723a2066756e6374696f6e2063616c6c65642066726f6d20696e636f60408201527372726563742077616c6c6574206164647265737360601b606082015260800190565b6020808252601b908201527f6572726f723a207573657220616c726561647920657869737473210000000000604082015260600190565b6020808252818101527f6572726f723a207573657220697320616c72656164792061206d616e61676572604082015260600190565b90815260200190565b600084825260606020830152612bfd6060830185612819565b905060018060a01b0383166040830152949350505050565b600084825260606020830152612c2e6060830185612819565b90508215156040830152949350505050565b600084825260606020830152612c596060830185612819565b8281036040840152612c6b8185612819565b9695505050505050565b600088825287602083015260e06040830152612c9460e0830188612819565b6001600160a01b0396909616606083015250921515608084015290151560a083015260c0909101529392505050565b600082821015612cd557612cd5612d60565b500390565b60005b83811015612cf5578181015183820152602001612cdd565b83811115612d04576000848401525b50505050565b600281046001821680612d1e57607f821691505b60208210811415612d3f57634e487b7160e01b600052602260045260246000fd5b50919050565b6000600019821415612d5957612d59612d60565b5060010190565b634e487b7160e01b600052601160045260246000fd5b634e487b7160e01b600052604160045260246000fdfea264697066735822122053a88e98b33723e895e48af697e5937779ec67bdc4cecc4bd1c88daa90d93ea764736f6c63430008010033",
  "immutableReferences": {},
  "source": "pragma solidity ^0.8.1;\n\ncontract DeveloperVerifier {\n    company[] public companies;\n    user[] public employees;\n    certificate[] public certifications;\n    endorsment[] public endorsments;\n    skill[] public skills;\n    experience[] public experiences;\n\n    mapping(string => address) public email_to_address;\n    mapping(address => uint256) public address_to_id;\n    mapping(address => bool) public is_company;\n\n    modifier verifiedUser(uint256 user_id) {\n        require(user_id == address_to_id[msg.sender]);\n        _;\n    }\n\n    struct company {\n        uint256 id;\n        string name;\n        address wallet_address;\n        uint256[] current_employees;\n        uint256[] previous_employees;\n        uint256[] requested_employees;\n    }\n\n    struct certificate {\n        string url;\n        string issue_date;\n        string valid_till;\n        string name;\n        uint256 id;\n        string issuer;\n    }\n\n    struct endorsment {\n        uint256 endorser_id;\n        string date;\n        string comment;\n    }\n\n    struct experience {\n        string starting_date;\n        string ending_date;\n        string user_name;\n        string role;\n        bool currently_working;\n        uint256 company_id;\n        bool is_approved;\n    }\n\n    struct skill {\n        uint256 id;\n        string name;\n        bool verified;\n        uint256[] skill_certifications;\n        uint256[] skill_endorsements;\n    }\n\n    struct user {\n        uint256 id;\n        uint256 company_id;\n        string name;\n        address wallet_address;\n        bool is_employed;\n        bool is_manager;\n        uint256 num_skill;\n        uint256[] user_skills;\n        uint256[] user_work_experience;\n    }\n\n    constructor() {\n        user storage dummy_user = employees.push();\n        dummy_user.name = \"dummy\";\n        dummy_user.wallet_address = msg.sender;\n        dummy_user.id = 0;\n        dummy_user.user_skills = new uint256[](0);\n        dummy_user.user_work_experience = new uint256[](0);\n    }\n\n    function memcmp(bytes memory a, bytes memory b)\n        internal\n        pure\n        returns (bool)\n    {\n        return (a.length == b.length) && (keccak256(a) == keccak256(b));\n    }\n\n    function strcmp(string memory a, string memory b)\n        internal\n        pure\n        returns (bool)\n    {\n        return memcmp(bytes(a), bytes(b));\n    }\n\n    function sign_up(\n        string calldata email,\n        string calldata name,\n        string calldata acc_type\n    ) public {\n        require(\n            email_to_address[email] == address(0),\n            \"error: user already exists!\"\n        );\n        email_to_address[email] = msg.sender;\n\n        if (strcmp(acc_type, \"user\")) {\n            user storage new_user = employees.push();\n            new_user.name = name;\n            new_user.id = employees.length - 1;\n            new_user.wallet_address = msg.sender;\n            address_to_id[msg.sender] = new_user.id;\n            new_user.user_skills = new uint256[](0);\n            new_user.user_work_experience = new uint256[](0);\n        } else {\n            company storage new_company = companies.push();\n            new_company.name = name;\n            new_company.id = companies.length - 1;\n            new_company.wallet_address = msg.sender;\n            new_company.current_employees = new uint256[](0);\n            new_company.previous_employees = new uint256[](0);\n            address_to_id[msg.sender] = new_company.id;\n            is_company[msg.sender] = true;\n        }\n    }\n\n    function approve_manager(uint256 employee_id) public {\n        require(is_company[msg.sender], \"error: sender not a company account\");\n        require(\n            employees[employee_id].company_id == address_to_id[msg.sender],\n            \"error: user not of the same company\"\n        );\n        require(\n            !(employees[employee_id].is_manager),\n            \"error: user is already a manager\"\n        );\n        employees[employee_id].is_manager = true;\n    }\n\n    function login(string memory email) public view returns (string memory) {\n        require(\n            msg.sender == email_to_address[email],\n            \"error: incorrect wallet address used for signing in\"\n        );\n        return (is_company[msg.sender]) ? \"company\" : \"user\";\n    }\n\n    function add_certification(\n        uint256 user_id,\n        string memory url,\n        string calldata issue_date,\n        string calldata valid_till,\n        string calldata name,\n        string calldata issuer,\n        uint256 linked_skill_id\n    ) public verifiedUser(user_id) {\n        certificate storage new_certificate = certifications.push();\n        new_certificate.url = url;\n        new_certificate.issue_date = issue_date;\n        new_certificate.valid_till = valid_till;\n        new_certificate.name = name;\n        new_certificate.id = certifications.length - 1;\n        new_certificate.issuer = issuer;\n        skills[linked_skill_id].skill_certifications.push(new_certificate.id);\n    }\n\n    function add_skill(uint256 userid, string calldata skill_name)\n        public\n        verifiedUser(userid)\n    {\n        skill storage new_skill = skills.push();\n        employees[userid].user_skills.push(skills.length - 1);\n        new_skill.id = skills.length - 1;\n        new_skill.name = skill_name;\n        new_skill.verified = false;\n        new_skill.skill_certifications = new uint256[](0);\n        new_skill.skill_endorsements = new uint256[](0);\n    }\n\n    function endorse_skill(\n        uint256 user_id,\n        uint256 skill_id,\n        string calldata endorsing_date,\n        string calldata comment\n    ) public {\n        endorsment storage new_endorsemnt = endorsments.push();\n        new_endorsemnt.endorser_id = address_to_id[msg.sender];\n        new_endorsemnt.comment = comment;\n        new_endorsemnt.date = endorsing_date;\n        skills[skill_id].skill_endorsements.push(endorsments.length - 1);\n        if (employees[address_to_id[msg.sender]].is_manager) {\n            if (\n                employees[address_to_id[msg.sender]].company_id ==\n                employees[user_id].company_id\n            ) {\n                skills[skill_id].verified = true;\n            }\n        }\n    }\n\n    function add_experience(\n        uint256 user_id,\n        string calldata starting_date,\n        string calldata ending_date,\n        string calldata role,\n        uint256 company_id\n    ) public verifiedUser(user_id) {\n        experience storage new_experience = experiences.push();\n        new_experience.company_id = company_id;\n        new_experience.currently_working = false;\n        new_experience.is_approved = false;\n        new_experience.starting_date = starting_date;\n        new_experience.ending_date = ending_date;\n        new_experience.role = role;\n        new_experience.user_name = employees[user_id].name;\n        employees[user_id].user_work_experience.push(experiences.length - 1);\n        companies[company_id].requested_employees.push(experiences.length - 1);\n    }\n\n    function approve_experience(uint256 exp_id, uint256 company_id) public {\n        require(\n            (is_company[msg.sender] &&\n                companies[address_to_id[msg.sender]].id ==\n                experiences[exp_id].company_id) ||\n                (employees[address_to_id[msg.sender]].is_manager &&\n                    employees[address_to_id[msg.sender]].company_id ==\n                    experiences[exp_id].company_id),\n            \"error: approver should be the company account or a manager of the required company\"\n        );\n        uint256 i;\n        experiences[exp_id].is_approved = true;\n        for (i = 0; i < companies[company_id].requested_employees.length; i++) {\n            if (companies[company_id].requested_employees[i] == exp_id) {\n                companies[company_id].requested_employees[i] = 0;\n                break;\n            }\n        }\n        for (i = 0; i < companies[company_id].current_employees.length; i++) {\n            if (companies[company_id].current_employees[i] == 0) {\n                companies[company_id].requested_employees[i] = exp_id;\n                break;\n            }\n        }\n        if (i == companies[company_id].current_employees.length)\n            companies[company_id].current_employees.push(exp_id);\n    }\n\n    function update_wallet_address(string calldata email, address new_address)\n        public\n    {\n        require(\n            email_to_address[email] == msg.sender,\n            \"error: function called from incorrect wallet address\"\n        );\n        email_to_address[email] = new_address;\n        uint256 id = address_to_id[msg.sender];\n        address_to_id[msg.sender] = 0;\n        address_to_id[new_address] = id;\n    }\n\n    function skills_of_user(uint256 id) public view returns (uint256[] memory) {\n        return employees[id].user_skills;\n    }\n\n    function exp_of_user(uint256 id) public view returns (uint256[] memory) {\n        return employees[id].user_work_experience;\n    }\n\n    function curr_emp_of_company(uint256 id)\n        public\n        view\n        returns (uint256[] memory)\n    {\n        return companies[id].current_employees;\n    }\n\n    function prev_emp_of_company(uint256 id)\n        public\n        view\n        returns (uint256[] memory)\n    {\n        return companies[id].previous_employees;\n    }\n\n    function requested_emp_of_company(uint256 id)\n        public\n        view\n        returns (uint256[] memory)\n    {\n        return companies[id].requested_employees;\n    }\n\n    function cert_of_skill(uint256 id) public view returns (uint256[] memory) {\n        return skills[id].skill_certifications;\n    }\n\n    function endrs_of_skill(uint256 id) public view returns (uint256[] memory) {\n        return skills[id].skill_endorsements;\n    }\n}\n",
  "sourcePath": "/Users/jacekstaszynski/Workspace/developer-verifier/contracts/DeveloperVerifier.sol",
  "compiler": {
    "name": "solc",
    "version": "0.8.1+commit.df193b15.Emscripten.clang"
  },
  "schemaVersion": "3.4.7",
  "updatedAt": "2022-08-21T10:40:43.026Z",
  "networkType": "ethereum",
  "devdoc": {
    "kind": "dev",
    "methods": {},
    "version": 1
  },
  "userdoc": {
    "kind": "user",
    "methods": {},
    "version": 1
  }
}