{
  "contractName": "MetaCoin",
  "abi": [
    {
      "inputs": [],
      "stateMutability": "nonpayable",
      "type": "constructor"
    },
    {
      "anonymous": false,
      "inputs": [
        {
          "indexed": true,
          "internalType": "address",
          "name": "_from",
          "type": "address"
        },
        {
          "indexed": true,
          "internalType": "address",
          "name": "_to",
          "type": "address"
        },
        {
          "indexed": false,
          "internalType": "uint256",
          "name": "_value",
          "type": "uint256"
        }
      ],
      "name": "Transfer",
      "type": "event"
    },
    {
      "inputs": [
        {
          "internalType": "address",
          "name": "receiver",
          "type": "address"
        },
        {
          "internalType": "uint256",
          "name": "amount",
          "type": "uint256"
        }
      ],
      "name": "sendCoin",
      "outputs": [
        {
          "internalType": "bool",
          "name": "sufficient",
          "type": "bool"
        }
      ],
      "stateMutability": "nonpayable",
      "type": "function"
    },
    {
      "inputs": [
        {
          "internalType": "address",
          "name": "addr",
          "type": "address"
        }
      ],
      "name": "getBalanceInEth",
      "outputs": [
        {
          "internalType": "uint256",
          "name": "",
          "type": "uint256"
        }
      ],
      "stateMutability": "view",
      "type": "function",
      "constant": true
    },
    {
      "inputs": [
        {
          "internalType": "address",
          "name": "addr",
          "type": "address"
        }
      ],
      "name": "getBalance",
      "outputs": [
        {
          "internalType": "uint256",
          "name": "",
          "type": "uint256"
        }
      ],
      "stateMutability": "view",
      "type": "function",
      "constant": true
    }
  ],
  "bytecode": "0x608060405234801561001057600080fd5b50326000908152602081905260409020612710905561032e806100346000396000f3fe608060405234801561001057600080fd5b50600436106100415760003560e01c80637bd703e81461004657806390b98a111461006f578063f8b2cb4f1461008f575b600080fd5b61005961005436600461022f565b6100a2565b604051610066919061029c565b60405180910390f35b61008261007d366004610250565b61013e565b6040516100669190610291565b61005961009d36600461022f565b6101fd565b600073__ConvertLib____________________________6396e4ee3d6100c7846101fd565b60026040518363ffffffff1660e01b81526004016100e69291906102a5565b60206040518083038186803b1580156100fe57600080fd5b505af4158015610112573d6000803e3d6000fd5b505050506040513d601f19601f820116820180604052508101906101369190610279565b90505b919050565b3360009081526020819052604081205482111561015d575060006101f7565b336000908152602081905260408120805484929061017c9084906102cb565b90915550506001600160a01b038316600090815260208190526040812080548492906101a99084906102b3565b90915550506040516001600160a01b0384169033907fddf252ad1be2c89b69c2b068fc378daa952ba7f163c4a11628f55a4df523b3ef906101eb90869061029c565b60405180910390a35060015b92915050565b6001600160a01b031660009081526020819052604090205490565b80356001600160a01b038116811461013957600080fd5b600060208284031215610240578081fd5b61024982610218565b9392505050565b60008060408385031215610262578081fd5b61026b83610218565b946020939093013593505050565b60006020828403121561028a578081fd5b5051919050565b901515815260200190565b90815260200190565b918252602082015260400190565b600082198211156102c6576102c66102e2565b500190565b6000828210156102dd576102dd6102e2565b500390565b634e487b7160e01b600052601160045260246000fdfea2646970667358221220a2dfaaacafaa2c3a1d67138659f33fb7b37b24e0acf62e6440a98878ee155d3f64736f6c63430008010033",
  "immutableReferences": {},
  "source": "pragma solidity ^0.8.1;\n\nimport \"./ConvertLib.sol\";\n\n// This is just a simple example of a coin-like contract.\n// It is not standards compatible and cannot be expected to talk to other\n// coin/token contracts. If you want to create a standards-compliant\n// token, see: https://github.com/ConsenSys/Tokens. Cheers!\n\ncontract MetaCoin {\n\tmapping (address => uint) balances;\n\n\tevent Transfer(address indexed _from, address indexed _to, uint256 _value);\n\n\tconstructor() public {\n\t\tbalances[tx.origin] = 10000;\n\t}\n\n\tfunction sendCoin(address receiver, uint amount) public returns(bool sufficient) {\n\t\tif (balances[msg.sender] < amount) return false;\n\t\tbalances[msg.sender] -= amount;\n\t\tbalances[receiver] += amount;\n\t\temit Transfer(msg.sender, receiver, amount);\n\t\treturn true;\n\t}\n\n\tfunction getBalanceInEth(address addr) public view returns(uint){\n\t\treturn ConvertLib.convert(getBalance(addr),2);\n\t}\n\n\tfunction getBalance(address addr) public view returns(uint) {\n\t\treturn balances[addr];\n\t}\n}\n",
  "sourcePath": "/Users/jacekstaszynski/Workspace/private/developer-verifier/contracts/MetaCoin.sol",
  "compiler": {
    "name": "solc",
    "version": "0.8.1+commit.df193b15.Emscripten.clang"
  },
  "schemaVersion": "3.4.8",
  "updatedAt": "2022-08-03T06:31:22.763Z",
  "networkType": "ethereum",
  "devdoc": {
    "kind": "dev",
    "methods": {},
    "version": 1
  },
  "userdoc": {
    "kind": "user",
    "methods": {},
    "version": 1
  }
}